:040000000200B63212
:03000B0002015A95
:0100130032BA
:01001B0032B2
:0100230032AA
:01002B0032A2
:01003300329A
:01003B003292
:030043000201199E
:200048000000E2FBEAF2802C0000E0FBEAF08024E6B50202EBF62200E2B50202EBF222009E
:20006800E0B50202EBF02230F6E0A88220F5D3EAC6F582228B822230F6E6A88220F5D980AE
:01008800CFA8
:030116000200895B
:0300890002019BD6
:20011900C021C0E0C0F0C082C083C007C006C005C004C003C002C001C000C0D075D000120D
:20013900051AD0D0D000D001D002D003D004D005D006D007D083D082D0F0D0E0D021020043
:200159008CC021C0E0C0F0C082C083C007C006C005C004C003C002C001C000C0D075D00053
:200179001201F1D0D0D000D001D002D003D004D005D006D007D083D082D0F0D0E0D021021E
:15019900008C1201DF1202091206F6120BD3D2AF120C0680FB98
:2001AE00AE82AF83EE4F6011E5C330E7FBE5C320E7FB1EBEFF011F80EB22C2A97816868234
:2001CE00088683D2A92275A15575A1AA2275A1002275A15575A1AA74F855B94406F5B975CC
:2001EE00A10022758A30758CF878168606088607781674012EF6E43F08F622758A30758CBD
:0F020E00F84389017816E4F608F6D2A9D28C22BB
:18021D0075E200C2AF9000011201AE02380075A15575A1AA43B1102224
:20023500D2B2D294D295D293D292D291D2B1D2B0227F10EF6004001F80F922C291120246BC
:20025500A2B2B39200E433F537758200120B86A294B39200E433F537758201120B86A29385
:20027500B39200E433F537758202120B86A292B39200E433F537758203120B86D291C2B116
:20029500120246A2B2B39200E433F537758204120B86A294B39200E433F537758205120B9E
:2002B50086A295B39200E433F537758206120B86A293B39200E433F537758207120B86A244
:2002D50092B39200E433F537758208120B86D2B1C2B0120246A2B2B39200E433F53775822B
:2002F50009120B86A294B39200E433F53775820A120B86A295B39200E433F53775820B1208
:200315000B86A293B39200E433F53775820C120B86A292B39200E433F53775820D120B8671
:03033500D2B02221
:200F02000400000005000000060000000700000008000000090000000A0000000B00000093
:180F22000C0000000D0000000E0000000F000000100000001100000060
:20033800900107E024F750047F088005900107E0FF8FDDE5DD602B85080B85090C750D804E
:2003580085DD0E750F009000F375F000120E55900107E0C395DDF0E5DD2508F508E4350989
:20037800F5092275DCC0900107E4F09000F4E0FF24F450030204B4EF240A83F582EF241006
:2003980083F583E4734350B483B41AB5B43626B49D0404040404040304040404049000F690
:2003B800E0FFBF0102800ABF02028013BF2230801C9001077412F075083A75090F80209075
:2003D80001077422F075084C75090F80129000F7E0700C900107742DF075086E75090F907B
:2003F8000107E070030204B49000F9E0FF900107E0FEC3EF9E5005900107EFF043D10202BE
:2004180003389000F5E0900107F053D1FD22E5E3547FFF9000F5E00354804FF5E322E5E372
:200438002354019000F3F075DD01229000F3E4F09000F4F075DD02229000F3E0FFBFA15CE5
:200458009000F7E07056FFBF0800501BEF24F3FDE43400FEEF24FDF582E43400F583E08D89
:20047800828E83F00F80E075DD08229000F3E0FFBFA1299000F7E07023A201E4339000F3D4
:20049800F075DD01229000F3E0FFBF210F9000F7E070099000F5E024FF92012243DC0F2221
:2004B800900107E0700122E5D130E10712033863DC4022748055E3FF900107E04FF5E32271
:2004D80022AF82C2EAEF24FDF582E43400F583E0FFD2EA8F8222AF82C2EAEF24FDF582E4D8
:2004F8003400F583E50AF0D2EA02050453D2FC2253D2FCE5D230E1FB2274FC55D24402F577
:20051800D22220D9030206D375DD00E5D9540FFFAED9530630BE00030206D1BE20030206F3
:200538009DBE300280030206D1EF60030206D175DCC0900107E4F09000F4E0FE24F4500345
:20055800020698EE240A83F582EE241083F583E4731C2B986198EA81980CF9987E06060651
:200578000606050506060506069000F6E0FEBE0102800ABE02028013BE2231801C900107E7
:200598007412F075083A75090F80219001077422F075084C75090F80139000F7E0FE700C00
:2005B800900107742DF075086E75090F900107E070030206989000F9E0FE900107E0FDC358
:2005D800EE9D5005900107EEF043D1021203380206D19000F5E0FE900107F053D1FD02065D
:2005F800D1E5E3547FFE9000F5E0035480FD4EF5E30206D1E5E3235401FE9000F3F075DD3E
:20061800010206D19000F3E4F09000F4F075DD020206D19000F3E0FEBEA1659000F7E0FE66
:20063800705EFEBE0800501CEE24F3FCE43400FDEE24FDF582E43400F583E0FB8C828D837F
:20065800F00E80DF75DD0880709000F3E0FEBEA12F9000F7E0FE7028A201E433FE9000F3B4
:20067800F075DD0180539000F3E0FEBE21129000F7E0FE700B9000F5E0FE24FF9201803948
:2006980043DC0F8034BF00028005BF012C8022900107E06024E5D130E10812033863DC40F5
:2006B8008017748055E3FF900107E0FE4FF5E3800874FC55D24402F5D2C2D930D813900150
:2006D80007E4F0D20175DC0275E300C2DAC2D9C2D810DA0122E5DA20E20375D8FF2243E274
:2006F8000653E2FD7F08EF601B1FEF24F3F582E43400F583E4F0EF24FDF582E43400F583A2
:20071800E4F080E2900107E4F0D20175E22975D18175DD0075ECF375ED0075D30875EEFD4D
:0F07380075EF0075D21275EA4075E107D2EA221B
:200F3A001201100100000008EDFE070000010000000109022200010100C032090400000148
:200F5A0003010100092111010001222D000705810308000105010906A101050719E029E781
:200F7A00150025017501950881029501750881019506750815002565050719002965810006
:010F9A00C096
:07010F009000E9E4F0A3F009
:200747009000E9E0FEA3E08E82F5832275820022AF827E007D02BD080050308D82C007C0EC
:2007670006C0051204D9AC82D005D006D007ECB50708EE540F7003ED4206EC700BEE54F0C6
:200787007006EDC454F042060D80CB8E8222AF827E007D08ED70030208311D8DF005F07B3C
:2007A700017C008006EB2BFBEC33FCD5F0F78F017A00E95203EA5204EB4C604BE522601D59
:2007C700ED24EBFBE43400FCED24EBF582E43400F583E0FA0A8B828C83EAF0802AED24EB84
:2007E700FBE43400FC8B828C83E0601BED24EBFBE43400FCED24EBF582E43400F583E0FA84
:200807001A8B828C83EAF0ED24EBFBE43400FC8B828C83E060027401FC8DF005F0EC800207
:2008270025E0D5F0FB420602079B758200C0061204D9AF82D006EFB50601228E0A758200F1
:200847000204EEAF82758200C0071204D9AE82D0077D00E5236005EF4EFD80287F08EF6016
:20086700231FEF24EBFBE43400FC8B828C83E060027401FC8FF005F0EC800225E0D5F0FBAC
:20088700420580DAEEB50501228D0A7582000204EEAF82C007120757AE82D007740F5EFD16
:2008A7005306F0E4CEC4540F6ECE540FCE6ECE30E30244F0E5246006ED7003EE7008E524DF
:2008C7007003ED700122E52470028D06E5247001FF8F0A8E821204EE1201C8E5828583F0B0
:2008E7009000E9F0E5F0A3F022858225120C4C85822685832785F02874022526F9E4352775
:20090700FAAB2889828A838BF0120EE2FB75F005A424A3F9740035F0FA89298A2A74012512
:2009270026F8E43527F9AA28888289838AF0120EE27041E525703DA826A927AA288882898A
:20094700838AF0120EE2602C74012529F9E4352AFA8B82C002C001120C12A882AB83AEF056
:20096700FFD001D00289828A83E8F0EBA3F0EEA3F0EFA3F074012529FEE4352AFF8E828FBB
:2009870083E0FAA3E0FBA3E0FCA3E08A828B838CF0C007C006120753E582D006D007705A06
:2009A7008E828F83E0FEA3E0FFA3E0FDA3E0FCA926AA27AB2889828A838BF0120EE2F5367C
:2009C7008E828F838DF0ECC003C002C001120AE6D001D002D003AE29AF2A8E828F83E0FD18
:2009E7005305FB89828A838BF0120EE225E025E042058E828F83EDF080127401B5250512C0
:200A070001C880087402B52503120C531205087402B52503120C6B120C45E4120EAA020CA0
:200A270089120C3EE582700D120C37E58260067582010208F0120C3EE582601A120C37E55B
:200A47008260087582021208F080EA120C6B7582001208F080DF22E582FF75F005A424A3F2
:200A6700FD740035F0FEE52C70578D348E35853482853583E030E24974012DF532E43EF5EC
:200A870033853282853383E0FAA3E0FCA3E0FDA3E0FE7536008A828C838DF0EE120AE68596
:200AA7003482853583E0FE5306FB853482853583EEF0853282853383E4F0A3F0A3F0A3F0B3
:200AC70022852C2D752E008F2F1201C8E5828583F0F53085F03190002D75F040020D25AC67
:200AE70082AD83AEF0FF780079008E02741F5FFBB8000BB90008BAFF05BB1F0280208E02E4
:200B07008A00E8FB60188536228B82C007C006C005C004120795D004D005D006D0078D0157
:200B27008903EB600C8536228B82C004120795D004EC60088536248C82120898E536700716
:200B4700F523F58202084A22AC82AD83AEF0FF7536018C828D838EF0EFC007C006C005C045
:200B670004120AE6120508D004D005D006D0077536008C828D838EF0EF120AE6020508E5C7
:200B870082FF75F005A424A3FD740035F0FE8D828E83E0FCFA530202E4A2E713CA13CAEA06
:200BA700B5371974015CB537012274FE5C45378D828E83F085372C8F82020A5E5304FDE553
:200BC70037253742048D828E83ECF0227F0EEF60141FEF75F005A424A3F582740035F0F53F
:200BE70083E4F080E97F08EF600F1FEF24EBF582E43400F583E4F080EE120E470202351231
:0B0C070002509000051201AE020A2806
:200C1200E58275F004A42402F582740F35F0F583E493FCA3E493FDA3E493FEA3E4938C82C7
:050C32008D838EF0220D
:200C37009000A0E0F582229000A1E0F582229000A275F0002290000075F000229000A0E06A
:200C570075F005A42400FEE43400FF7D008E828F838DF0229000A1E07001229000A0E0FF45
:200C77000F9000A0EFF09000A1E0FF1F9000A1EFF0229000A0E07001227F009000A0E0FEAE
:200C97007D009000A1E07B002EFEEB3DFD1EBEFF011D8F037C00C3EB9EEC64808DF063F0F0
:200CB7008095F05052EF75F005A42400FDE43400FE7A0074012BF50BE43CF50C900005C0B2
:200CD70007C006C005C002120EC5AB82AC83D002D005D006EB2400FBEC3400FC8B0B8C0C97
:200CF700750D00750E05750F008D828E838AF0120E55D0070F80849000A1E0FF9000A0E036
:200D1700FE1EEE2F9000A1F09000A0E4F022AD82AE83AFF09000A0E0FC7B009000A1E07A2B
:200D3700002CF50BEA3BF50C900005C007C006C005120EC5AB82AC83D005D006D007EB2491
:200D570000FBEC3400FC7A008D0B8E0C8F0D750E058A0F8B828C838AF0120E559000A1E0E0
:200D7700FF0F9000A1EFF0229000A1E07001227F009000A1E0FE7D001EBEFF011D8F037C66
:200D970000C3EB9EEC64808DF063F08095F04003020E279000A0E0FE7D00EB2EF50BEC3D04
:200DB700F50C900005C007C004C003120EC5AD82AE83D003D004ED2400FDEE3400FE7A00A4
:200DD7009000A0E0F87900EB28FBEC39FC74012BF50BE43CF50C900005C006C005C0021297
:200DF7000EC5AB82AC83D002D005D006EB2400FBEC3400FC8B0B8C0C750D00750E05750F4E
:200E1700008D828E838AF0120E55D0070F020D889000A1E0FF1F9000A1EFF0229000A1E0BD
:1E0E3700FF9000A0E02F9000A1F09000A0E4F0229000A0E4F09000A1F09000A2F022AF
:0600E500E478FFF6D8FDEF
:200E5500AD82AE83AFF08D108E118F12850B13850C14850D15A80EA90F8803890418B8FF5D
:200E75000119EB4C60258513828514838515F0120EE2FCA38582138583148D828E838FF051
:150E9500EC120EAAA3AD82AE8380CE8510828511838512F02268
:2000C3007900E94400601B7A00900F9B780175A000E493F2A308B8000205A0D9F4DAF27539
:0200E300A0FF7C
:20008C00C000A88118C0D0B6001B18B648004015B66F005010C0E0E65407B406005004E62D
:0A00AC0054F8F6D0E0D0D0D00032B6
:1B0EAA0020F71130F6138883A88220F509F6A8837583002280FEF280F5F02247
:1D0EC500E582850BF0A4C582C0F0850CF0A4D0F025F0C583850BF0A42583F58322E6
:2000EB007800E84400600A790175A000E4F309D8FC7800E84400600C7900900001E4F0A313
:04010B00D8FCD9FA49
:0D00B600758137120EFEE58260030200899D
:1C0EE20020F71430F6148883A88220F507E6A88375830022E280F7E49322E0221F
:040EFE0075820022D7
:00000001FF
